{
  "_format": "hh-sol-artifact-1",
  "contractName": "RandomSVG",
  "sourceName": "contracts/RandomSVG.sol",
  "abi": [
    {
      "inputs": [
        {
          "internalType": "address",
          "name": "_VRFCoordinator",
          "type": "address"
        },
        {
          "internalType": "address",
          "name": "_LinkToken",
          "type": "address"
        },
        {
          "internalType": "bytes32",
          "name": "_keyhash",
          "type": "bytes32"
        },
        {
          "internalType": "uint256",
          "name": "_fee",
          "type": "uint256"
        }
      ],
      "stateMutability": "nonpayable",
      "type": "constructor"
    },
    {
      "anonymous": false,
      "inputs": [
        {
          "indexed": true,
          "internalType": "address",
          "name": "owner",
          "type": "address"
        },
        {
          "indexed": true,
          "internalType": "address",
          "name": "approved",
          "type": "address"
        },
        {
          "indexed": true,
          "internalType": "uint256",
          "name": "tokenId",
          "type": "uint256"
        }
      ],
      "name": "Approval",
      "type": "event"
    },
    {
      "anonymous": false,
      "inputs": [
        {
          "indexed": true,
          "internalType": "address",
          "name": "owner",
          "type": "address"
        },
        {
          "indexed": true,
          "internalType": "address",
          "name": "operator",
          "type": "address"
        },
        {
          "indexed": false,
          "internalType": "bool",
          "name": "approved",
          "type": "bool"
        }
      ],
      "name": "ApprovalForAll",
      "type": "event"
    },
    {
      "anonymous": false,
      "inputs": [
        {
          "indexed": true,
          "internalType": "uint256",
          "name": "tokenId",
          "type": "uint256"
        },
        {
          "indexed": false,
          "internalType": "string",
          "name": "tokenURI",
          "type": "string"
        }
      ],
      "name": "CreatedRandomSVG",
      "type": "event"
    },
    {
      "anonymous": false,
      "inputs": [
        {
          "indexed": true,
          "internalType": "uint256",
          "name": "randomNumber",
          "type": "uint256"
        }
      ],
      "name": "CreatedUnfinishedRandomSVG",
      "type": "event"
    },
    {
      "anonymous": false,
      "inputs": [
        {
          "indexed": true,
          "internalType": "address",
          "name": "previousOwner",
          "type": "address"
        },
        {
          "indexed": true,
          "internalType": "address",
          "name": "newOwner",
          "type": "address"
        }
      ],
      "name": "OwnershipTransferred",
      "type": "event"
    },
    {
      "anonymous": false,
      "inputs": [
        {
          "indexed": true,
          "internalType": "address",
          "name": "from",
          "type": "address"
        },
        {
          "indexed": true,
          "internalType": "address",
          "name": "to",
          "type": "address"
        },
        {
          "indexed": true,
          "internalType": "uint256",
          "name": "tokenId",
          "type": "uint256"
        }
      ],
      "name": "Transfer",
      "type": "event"
    },
    {
      "anonymous": false,
      "inputs": [
        {
          "indexed": true,
          "internalType": "bytes32",
          "name": "requestId",
          "type": "bytes32"
        },
        {
          "indexed": true,
          "internalType": "uint256",
          "name": "tokenId",
          "type": "uint256"
        }
      ],
      "name": "requestedRandomSVG",
      "type": "event"
    },
    {
      "inputs": [
        {
          "internalType": "address",
          "name": "to",
          "type": "address"
        },
        {
          "internalType": "uint256",
          "name": "tokenId",
          "type": "uint256"
        }
      ],
      "name": "approve",
      "outputs": [],
      "stateMutability": "nonpayable",
      "type": "function"
    },
    {
      "inputs": [
        {
          "internalType": "address",
          "name": "owner",
          "type": "address"
        }
      ],
      "name": "balanceOf",
      "outputs": [
        {
          "internalType": "uint256",
          "name": "",
          "type": "uint256"
        }
      ],
      "stateMutability": "view",
      "type": "function"
    },
    {
      "inputs": [
        {
          "internalType": "bytes32",
          "name": "_bytes32",
          "type": "bytes32"
        }
      ],
      "name": "bytes32ToString",
      "outputs": [
        {
          "internalType": "string",
          "name": "",
          "type": "string"
        }
      ],
      "stateMutability": "pure",
      "type": "function"
    },
    {
      "inputs": [
        {
          "internalType": "uint256",
          "name": "rep",
          "type": "uint256"
        }
      ],
      "name": "create",
      "outputs": [
        {
          "internalType": "bytes32",
          "name": "requestId",
          "type": "bytes32"
        }
      ],
      "stateMutability": "nonpayable",
      "type": "function"
    },
    {
      "inputs": [
        {
          "internalType": "uint256",
          "name": "tokenId",
          "type": "uint256"
        },
        {
          "internalType": "uint256",
          "name": "rep",
          "type": "uint256"
        }
      ],
      "name": "finishMint",
      "outputs": [],
      "stateMutability": "nonpayable",
      "type": "function"
    },
    {
      "inputs": [
        {
          "internalType": "string",
          "name": "imageURI",
          "type": "string"
        }
      ],
      "name": "formatTokenURI",
      "outputs": [
        {
          "internalType": "string",
          "name": "",
          "type": "string"
        }
      ],
      "stateMutability": "pure",
      "type": "function"
    },
    {
      "inputs": [
        {
          "internalType": "uint256",
          "name": "_randomness",
          "type": "uint256"
        },
        {
          "internalType": "uint256",
          "name": "lineColor",
          "type": "uint256"
        },
        {
          "internalType": "uint256",
          "name": "lineWidth",
          "type": "uint256"
        },
        {
          "internalType": "uint256",
          "name": "lineBrightness",
          "type": "uint256"
        }
      ],
      "name": "generatePath",
      "outputs": [
        {
          "internalType": "string",
          "name": "pathSvg",
          "type": "string"
        }
      ],
      "stateMutability": "nonpayable",
      "type": "function"
    },
    {
      "inputs": [
        {
          "internalType": "uint256",
          "name": "_randomness",
          "type": "uint256"
        }
      ],
      "name": "generatePathCommand",
      "outputs": [
        {
          "internalType": "string",
          "name": "pathCommand",
          "type": "string"
        }
      ],
      "stateMutability": "nonpayable",
      "type": "function"
    },
    {
      "inputs": [
        {
          "internalType": "uint256",
          "name": "_randomness",
          "type": "uint256"
        }
      ],
      "name": "generateSVG",
      "outputs": [
        {
          "internalType": "string",
          "name": "finalSvg",
          "type": "string"
        }
      ],
      "stateMutability": "nonpayable",
      "type": "function"
    },
    {
      "inputs": [
        {
          "internalType": "uint256",
          "name": "tokenId",
          "type": "uint256"
        }
      ],
      "name": "getApproved",
      "outputs": [
        {
          "internalType": "address",
          "name": "",
          "type": "address"
        }
      ],
      "stateMutability": "view",
      "type": "function"
    },
    {
      "inputs": [
        {
          "internalType": "address",
          "name": "owner",
          "type": "address"
        },
        {
          "internalType": "address",
          "name": "operator",
          "type": "address"
        }
      ],
      "name": "isApprovedForAll",
      "outputs": [
        {
          "internalType": "bool",
          "name": "",
          "type": "bool"
        }
      ],
      "stateMutability": "view",
      "type": "function"
    },
    {
      "inputs": [],
      "name": "maxNumberOfPathCommands",
      "outputs": [
        {
          "internalType": "uint256",
          "name": "",
          "type": "uint256"
        }
      ],
      "stateMutability": "view",
      "type": "function"
    },
    {
      "inputs": [
        {
          "internalType": "uint256",
          "name": "tokenId",
          "type": "uint256"
        },
        {
          "internalType": "uint256",
          "name": "rep",
          "type": "uint256"
        },
        {
          "internalType": "address",
          "name": "NFTowner",
          "type": "address"
        }
      ],
      "name": "mintNft",
      "outputs": [],
      "stateMutability": "nonpayable",
      "type": "function"
    },
    {
      "inputs": [],
      "name": "name",
      "outputs": [
        {
          "internalType": "string",
          "name": "",
          "type": "string"
        }
      ],
      "stateMutability": "view",
      "type": "function"
    },
    {
      "inputs": [],
      "name": "owner",
      "outputs": [
        {
          "internalType": "address",
          "name": "",
          "type": "address"
        }
      ],
      "stateMutability": "view",
      "type": "function"
    },
    {
      "inputs": [
        {
          "internalType": "uint256",
          "name": "tokenId",
          "type": "uint256"
        }
      ],
      "name": "ownerOf",
      "outputs": [
        {
          "internalType": "address",
          "name": "",
          "type": "address"
        }
      ],
      "stateMutability": "view",
      "type": "function"
    },
    {
      "inputs": [],
      "name": "rand",
      "outputs": [
        {
          "internalType": "uint256",
          "name": "",
          "type": "uint256"
        }
      ],
      "stateMutability": "view",
      "type": "function"
    },
    {
      "inputs": [
        {
          "internalType": "bytes32",
          "name": "requestId",
          "type": "bytes32"
        },
        {
          "internalType": "uint256",
          "name": "randomness",
          "type": "uint256"
        }
      ],
      "name": "rawFulfillRandomness",
      "outputs": [],
      "stateMutability": "nonpayable",
      "type": "function"
    },
    {
      "inputs": [],
      "name": "renounceOwnership",
      "outputs": [],
      "stateMutability": "nonpayable",
      "type": "function"
    },
    {
      "inputs": [
        {
          "internalType": "bytes32",
          "name": "",
          "type": "bytes32"
        }
      ],
      "name": "requestIdToSender",
      "outputs": [
        {
          "internalType": "address",
          "name": "",
          "type": "address"
        }
      ],
      "stateMutability": "view",
      "type": "function"
    },
    {
      "inputs": [
        {
          "internalType": "bytes32",
          "name": "",
          "type": "bytes32"
        }
      ],
      "name": "requestIdToTokenId",
      "outputs": [
        {
          "internalType": "uint256",
          "name": "",
          "type": "uint256"
        }
      ],
      "stateMutability": "view",
      "type": "function"
    },
    {
      "inputs": [
        {
          "internalType": "address",
          "name": "from",
          "type": "address"
        },
        {
          "internalType": "address",
          "name": "to",
          "type": "address"
        },
        {
          "internalType": "uint256",
          "name": "tokenId",
          "type": "uint256"
        }
      ],
      "name": "safeTransferFrom",
      "outputs": [],
      "stateMutability": "nonpayable",
      "type": "function"
    },
    {
      "inputs": [
        {
          "internalType": "address",
          "name": "from",
          "type": "address"
        },
        {
          "internalType": "address",
          "name": "to",
          "type": "address"
        },
        {
          "internalType": "uint256",
          "name": "tokenId",
          "type": "uint256"
        },
        {
          "internalType": "bytes",
          "name": "_data",
          "type": "bytes"
        }
      ],
      "name": "safeTransferFrom",
      "outputs": [],
      "stateMutability": "nonpayable",
      "type": "function"
    },
    {
      "inputs": [
        {
          "internalType": "address",
          "name": "operator",
          "type": "address"
        },
        {
          "internalType": "bool",
          "name": "approved",
          "type": "bool"
        }
      ],
      "name": "setApprovalForAll",
      "outputs": [],
      "stateMutability": "nonpayable",
      "type": "function"
    },
    {
      "inputs": [],
      "name": "size",
      "outputs": [
        {
          "internalType": "uint256",
          "name": "",
          "type": "uint256"
        }
      ],
      "stateMutability": "view",
      "type": "function"
    },
    {
      "inputs": [],
      "name": "startx",
      "outputs": [
        {
          "internalType": "uint256",
          "name": "",
          "type": "uint256"
        }
      ],
      "stateMutability": "view",
      "type": "function"
    },
    {
      "inputs": [],
      "name": "starty",
      "outputs": [
        {
          "internalType": "uint256",
          "name": "",
          "type": "uint256"
        }
      ],
      "stateMutability": "view",
      "type": "function"
    },
    {
      "inputs": [
        {
          "internalType": "bytes4",
          "name": "interfaceId",
          "type": "bytes4"
        }
      ],
      "name": "supportsInterface",
      "outputs": [
        {
          "internalType": "bool",
          "name": "",
          "type": "bool"
        }
      ],
      "stateMutability": "view",
      "type": "function"
    },
    {
      "inputs": [
        {
          "internalType": "string",
          "name": "svg",
          "type": "string"
        }
      ],
      "name": "svgToImageURI",
      "outputs": [
        {
          "internalType": "string",
          "name": "",
          "type": "string"
        }
      ],
      "stateMutability": "pure",
      "type": "function"
    },
    {
      "inputs": [],
      "name": "symbol",
      "outputs": [
        {
          "internalType": "string",
          "name": "",
          "type": "string"
        }
      ],
      "stateMutability": "view",
      "type": "function"
    },
    {
      "inputs": [],
      "name": "tokenCounter",
      "outputs": [
        {
          "internalType": "uint256",
          "name": "",
          "type": "uint256"
        }
      ],
      "stateMutability": "view",
      "type": "function"
    },
    {
      "inputs": [
        {
          "internalType": "uint256",
          "name": "",
          "type": "uint256"
        }
      ],
      "name": "tokenIdToRandomNumber",
      "outputs": [
        {
          "internalType": "uint256",
          "name": "",
          "type": "uint256"
        }
      ],
      "stateMutability": "view",
      "type": "function"
    },
    {
      "inputs": [
        {
          "internalType": "uint256",
          "name": "tokenId",
          "type": "uint256"
        }
      ],
      "name": "tokenURI",
      "outputs": [
        {
          "internalType": "string",
          "name": "",
          "type": "string"
        }
      ],
      "stateMutability": "view",
      "type": "function"
    },
    {
      "inputs": [
        {
          "internalType": "address",
          "name": "from",
          "type": "address"
        },
        {
          "internalType": "address",
          "name": "to",
          "type": "address"
        },
        {
          "internalType": "uint256",
          "name": "tokenId",
          "type": "uint256"
        }
      ],
      "name": "transferFrom",
      "outputs": [],
      "stateMutability": "nonpayable",
      "type": "function"
    },
    {
      "inputs": [
        {
          "internalType": "address",
          "name": "newOwner",
          "type": "address"
        }
      ],
      "name": "transferOwnership",
      "outputs": [],
      "stateMutability": "nonpayable",
      "type": "function"
    },
    {
      "inputs": [],
      "name": "withdraw",
      "outputs": [],
      "stateMutability": "payable",
      "type": "function"
    }
  ],
  "bytecode": "0x60c0604052600060115560006012553480156200001b57600080fd5b50604051620056fd380380620056fd83398181016040528101906200004191906200035f565b83836040518060400160405280601681526020017f52616e646f6d5f4f6e436861696e5f6172745f535647000000000000000000008152506040518060400160405280600481526020017f524f4153000000000000000000000000000000000000000000000000000000008152508160009080519060200190620000c79291906200026a565b508060019080519060200190620000e09291906200026a565b5050508173ffffffffffffffffffffffffffffffffffffffff1660a08173ffffffffffffffffffffffffffffffffffffffff1660601b815250508073ffffffffffffffffffffffffffffffffffffffff1660808173ffffffffffffffffffffffffffffffffffffffff1660601b81525050505062000173620001676200019c60201b60201c565b620001a460201b60201c565b600060098190555081600d8190555080600e819055506101f460108190555050505050620004c6565b600033905090565b6000600860009054906101000a900473ffffffffffffffffffffffffffffffffffffffff16905081600860006101000a81548173ffffffffffffffffffffffffffffffffffffffff021916908373ffffffffffffffffffffffffffffffffffffffff1602179055508173ffffffffffffffffffffffffffffffffffffffff168173ffffffffffffffffffffffffffffffffffffffff167f8be0079c531659141344cd1fd0a4f28419497f9722a3daafe3b4186f6b6457e060405160405180910390a35050565b828054620002789062000413565b90600052602060002090601f0160209004810192826200029c5760008555620002e8565b82601f10620002b757805160ff1916838001178555620002e8565b82800160010185558215620002e8579182015b82811115620002e7578251825591602001919060010190620002ca565b5b509050620002f79190620002fb565b5090565b5b8082111562000316576000816000905550600101620002fc565b5090565b6000815190506200032b8162000478565b92915050565b600081519050620003428162000492565b92915050565b6000815190506200035981620004ac565b92915050565b600080600080608085870312156200037657600080fd5b600062000386878288016200031a565b945050602062000399878288016200031a565b9350506040620003ac8782880162000331565b9250506060620003bf8782880162000348565b91505092959194509250565b6000620003d882620003e9565b9050919050565b6000819050919050565b600073ffffffffffffffffffffffffffffffffffffffff82169050919050565b6000819050919050565b600060028204905060018216806200042c57607f821691505b6020821081141562000443576200044262000449565b5b50919050565b7f4e487b7100000000000000000000000000000000000000000000000000000000600052602260045260246000fd5b6200048381620003cb565b81146200048f57600080fd5b50565b6200049d81620003df565b8114620004a957600080fd5b50565b620004b78162000409565b8114620004c357600080fd5b50565b60805160601c60a05160601c615204620004f96000396000818161174f0152612921015260006128e501526152046000f3fe60806040526004361061020f5760003560e01c8063715018a611610118578063a22cb465116100a0578063cdda74571161006f578063cdda745714610802578063d082e3811461082b578063e985e9c514610856578063ee2c0de114610893578063f2fde38b146108d05761020f565b8063a22cb46514610736578063b88d4fde1461075f578063c68b49d114610788578063c87b56dd146107c55761020f565b80639201de55116100e75780639201de551461063d57806394985ddd1461067a578063949d225d146106a357806395d89b41146106ce5780639c1cd795146106f95761020f565b8063715018a61461058157806371aee19314610598578063780900dc146105d55780638da5cb5b146106125761020f565b806330d871c61161019b57806342842e0e1161016a57806342842e0e1461047657806348e896ab1461049f5780636352211e146104ca5780636dcee4ca1461050757806370a08231146105445761020f565b806330d871c6146103db5780633b3dca76146104185780633ccfd60b1461044357806340ac7ed31461044d5761020f565b8063163d2537116101e2578063163d2537146102e257806318efbd691461030d578063219c0eee1461033857806322881f881461037557806323b872dd146103b25761020f565b806301ffc9a71461021457806306fdde0314610251578063081812fc1461027c578063095ea7b3146102b9575b600080fd5b34801561022057600080fd5b5061023b60048036038101906102369190613722565b6108f9565b60405161024891906148ad565b60405180910390f35b34801561025d57600080fd5b506102666109db565b6040516102739190614951565b60405180910390f35b34801561028857600080fd5b506102a3600480360381019061029e91906137b5565b610a6d565b6040516102b09190614808565b60405180910390f35b3480156102c557600080fd5b506102e060048036038101906102db9190613658565b610af2565b005b3480156102ee57600080fd5b506102f7610c0a565b6040516103049190614c33565b60405180910390f35b34801561031957600080fd5b50610322610c10565b60405161032f9190614c33565b60405180910390f35b34801561034457600080fd5b5061035f600480360381019061035a91906136bd565b610c16565b60405161036c9190614808565b60405180910390f35b34801561038157600080fd5b5061039c600480360381019061039791906136bd565b610c49565b6040516103a99190614c33565b60405180910390f35b3480156103be57600080fd5b506103d960048036038101906103d49190613552565b610c61565b005b3480156103e757600080fd5b5061040260048036038101906103fd9190613774565b610cc1565b60405161040f9190614951565b60405180910390f35b34801561042457600080fd5b5061042d610d54565b60405161043a9190614c33565b60405180910390f35b61044b610d5a565b005b34801561045957600080fd5b50610474600480360381019061046f91906137de565b610e26565b005b34801561048257600080fd5b5061049d60048036038101906104989190613552565b610fbd565b005b3480156104ab57600080fd5b506104b4610fdd565b6040516104c19190614c33565b60405180910390f35b3480156104d657600080fd5b506104f160048036038101906104ec91906137b5565b610fe3565b6040516104fe9190614808565b60405180910390f35b34801561051357600080fd5b5061052e600480360381019061052991906137b5565b611095565b60405161053b9190614951565b60405180910390f35b34801561055057600080fd5b5061056b600480360381019061056691906134ed565b611221565b6040516105789190614c33565b60405180910390f35b34801561058d57600080fd5b506105966112d9565b005b3480156105a457600080fd5b506105bf60048036038101906105ba9190613774565b611361565b6040516105cc9190614951565b60405180910390f35b3480156105e157600080fd5b506105fc60048036038101906105f791906137b5565b6113b1565b60405161060991906148c8565b60405180910390f35b34801561061e57600080fd5b506106276114ca565b6040516106349190614808565b60405180910390f35b34801561064957600080fd5b50610664600480360381019061065f91906136bd565b6114f4565b6040516106719190614951565b60405180910390f35b34801561068657600080fd5b506106a1600480360381019061069c91906136e6565b61174d565b005b3480156106af57600080fd5b506106b86117e9565b6040516106c59190614c33565b60405180910390f35b3480156106da57600080fd5b506106e36117ef565b6040516106f09190614951565b60405180910390f35b34801561070557600080fd5b50610720600480360381019061071b91906137b5565b611881565b60405161072d9190614c33565b60405180910390f35b34801561074257600080fd5b5061075d6004803603810190610758919061361c565b611899565b005b34801561076b57600080fd5b50610786600480360381019061078191906135a1565b6118af565b005b34801561079457600080fd5b506107af60048036038101906107aa91906137b5565b611911565b6040516107bc9190614951565b60405180910390f35b3480156107d157600080fd5b506107ec60048036038101906107e791906137b5565b611b1a565b6040516107f99190614951565b60405180910390f35b34801561080e57600080fd5b506108296004803603810190610824919061381a565b611c6c565b005b34801561083757600080fd5b50610840611cf3565b60405161084d9190614c33565b60405180910390f35b34801561086257600080fd5b5061087d60048036038101906108789190613516565b611cf9565b60405161088a91906148ad565b60405180910390f35b34801561089f57600080fd5b506108ba60048036038101906108b59190613869565b611d8d565b6040516108c79190614951565b60405180910390f35b3480156108dc57600080fd5b506108f760048036038101906108f291906134ed565b611e6a565b005b60007f80ac58cd000000000000000000000000000000000000000000000000000000007bffffffffffffffffffffffffffffffffffffffffffffffffffffffff1916827bffffffffffffffffffffffffffffffffffffffffffffffffffffffff191614806109c457507f5b5e139f000000000000000000000000000000000000000000000000000000007bffffffffffffffffffffffffffffffffffffffffffffffffffffffff1916827bffffffffffffffffffffffffffffffffffffffffffffffffffffffff1916145b806109d457506109d382611f62565b5b9050919050565b6060600080546109ea90614f64565b80601f0160208091040260200160405190810160405280929190818152602001828054610a1690614f64565b8015610a635780601f10610a3857610100808354040283529160200191610a63565b820191906000526020600020905b815481529060010190602001808311610a4657829003601f168201915b5050505050905090565b6000610a7882611fcc565b610ab7576040517f08c379a0000000000000000000000000000000000000000000000000000000008152600401610aae90614b53565b60405180910390fd5b6004600083815260200190815260200160002060009054906101000a900473ffffffffffffffffffffffffffffffffffffffff169050919050565b6000610afd82610fe3565b90508073ffffffffffffffffffffffffffffffffffffffff168373ffffffffffffffffffffffffffffffffffffffff161415610b6e576040517f08c379a0000000000000000000000000000000000000000000000000000000008152600401610b6590614bf3565b60405180910390fd5b8073ffffffffffffffffffffffffffffffffffffffff16610b8d612038565b73ffffffffffffffffffffffffffffffffffffffff161480610bbc5750610bbb81610bb6612038565b611cf9565b5b610bfb576040517f08c379a0000000000000000000000000000000000000000000000000000000008152600401610bf290614a73565b60405180910390fd5b610c058383612040565b505050565b60125481565b60115481565b600a6020528060005260406000206000915054906101000a900473ffffffffffffffffffffffffffffffffffffffff1681565b600c6020528060005260406000206000915090505481565b610c72610c6c612038565b826120f9565b610cb1576040517f08c379a0000000000000000000000000000000000000000000000000000000008152600401610ca890614c13565b60405180910390fd5b610cbc8383836121d7565b505050565b606060006040518060400160405280601a81526020017f646174613a696d6167652f7376672b786d6c3b6261736536342c00000000000081525090506000610d2784604051602001610d13919061460b565b604051602081830303815290604052612433565b90508181604051602001610d3c929190614622565b60405160208183030381529060405292505050919050565b60135481565b610d62612038565b73ffffffffffffffffffffffffffffffffffffffff16610d806114ca565b73ffffffffffffffffffffffffffffffffffffffff1614610dd6576040517f08c379a0000000000000000000000000000000000000000000000000000000008152600401610dcd90614b73565b60405180910390fd5b610dde6114ca565b73ffffffffffffffffffffffffffffffffffffffff166108fc479081150290604051600060405180830381858888f19350505050158015610e23573d6000803e3d6000fd5b50565b60008290505b8183610e389190614d4b565b811015610fb8576000610e4a82611b1a565b511115610e8c576040517f08c379a0000000000000000000000000000000000000000000000000000000008152600401610e8390614a33565b60405180910390fd5b8060095411610ed0576040517f08c379a0000000000000000000000000000000000000000000000000000000008152600401610ec790614af3565b60405180910390fd5b6000600b60008381526020019081526020016000205411610f26576040517f08c379a0000000000000000000000000000000000000000000000000000000008152600401610f1d906149d3565b60405180910390fd5b6000600b60008381526020019081526020016000205490506000610f4982611095565b90506000610f5682610cc1565b9050610f6a84610f6583611361565b6125d2565b837f15a6487b7915a7116ce2a61d43b17e9b47484b1931f3c79f2f3d139b307b389383604051610f9a9190614951565b60405180910390a25050508080610fb090614f96565b915050610e2c565b505050565b610fd8838383604051806020016040528060008152506118af565b505050565b600f5481565b6000806002600084815260200190815260200160002060009054906101000a900473ffffffffffffffffffffffffffffffffffffffff169050600073ffffffffffffffffffffffffffffffffffffffff168173ffffffffffffffffffffffffffffffffffffffff16141561108c576040517f08c379a000000000000000000000000000000000000000000000000000000000815260040161108390614ab3565b60405180910390fd5b80915050919050565b60606000826040516020016110aa9190614c33565b6040516020818303038152906040528051906020012060001c90506000600160ff836110d6919061501d565b6110e09190614d4b565b90506000601490506000603290506110f9601054612646565b611104601054612646565b604051602001611115929190614724565b604051602081830303815290604052945060005b60068110156111f55760008782604051602001611147929190614c4e565b6040516020818303038152906040528051906020012060001c9050600061117082878787611d8d565b90508781604051602001611185929190614622565b604051602081830303815290604052975060006002866111a59190614d4b565b11156111bb576002856111b89190614e63565b94505b60006005856111ca9190614d4b565b11156111e0576005846111dd9190614e63565b93505b505080806111ed90614f96565b915050611129565b50846040516020016112079190614702565b604051602081830303815290604052945050505050919050565b60008073ffffffffffffffffffffffffffffffffffffffff168273ffffffffffffffffffffffffffffffffffffffff161415611292576040517f08c379a000000000000000000000000000000000000000000000000000000000815260040161128990614a93565b60405180910390fd5b600360008373ffffffffffffffffffffffffffffffffffffffff1673ffffffffffffffffffffffffffffffffffffffff168152602001908152602001600020549050919050565b6112e1612038565b73ffffffffffffffffffffffffffffffffffffffff166112ff6114ca565b73ffffffffffffffffffffffffffffffffffffffff1614611355576040517f08c379a000000000000000000000000000000000000000000000000000000000815260040161134c90614b73565b60405180910390fd5b61135f600061281b565b565b606061138b82604051602001611377919061478b565b604051602081830303815290604052612433565b60405160200161139b9190614769565b6040516020818303038152906040529050919050565b60006113c1600d54600e546128e1565b90506000600954905060005b838110156114c357600083826040516020016113ea9291906148e3565b60405160208183030381529060405280519060200120905033600a600083815260200190815260200160002060006101000a81548173ffffffffffffffffffffffffffffffffffffffff021916908373ffffffffffffffffffffffffffffffffffffffff16021790555082600c600083815260200190815260200160002081905550600160095461147b9190614d4b565b60098190555082817fb97343f1f2afc4959f818046ccae28fd7b05fcd2b7a7dc651cbb52a096cae03560405160405180910390a35080806114bb90614f96565b9150506113cd565b5050919050565b6000600860009054906101000a900473ffffffffffffffffffffffffffffffffffffffff16905090565b606060005b60208160ff161080156115715750600060f81b838260ff1660208110611548577f4e487b7100000000000000000000000000000000000000000000000000000000600052603260045260246000fd5b1a60f81b7effffffffffffffffffffffffffffffffffffffffffffffffffffffffffffff191614155b1561158957808061158190614fdf565b9150506114f9565b60008160ff1667ffffffffffffffff8111156115ce577f4e487b7100000000000000000000000000000000000000000000000000000000600052604160045260246000fd5b6040519080825280601f01601f1916602001820160405280156116005781602001600182028036833780820191505090505b509050600091505b60208260ff161080156116805750600060f81b848360ff1660208110611657577f4e487b7100000000000000000000000000000000000000000000000000000000600052603260045260246000fd5b1a60f81b7effffffffffffffffffffffffffffffffffffffffffffffffffffffffffffff191614155b1561174357838260ff16602081106116c1577f4e487b7100000000000000000000000000000000000000000000000000000000600052603260045260246000fd5b1a60f81b818360ff1681518110611701577f4e487b7100000000000000000000000000000000000000000000000000000000600052603260045260246000fd5b60200101907effffffffffffffffffffffffffffffffffffffffffffffffffffffffffffff1916908160001a905350818061173b90614fdf565b925050611608565b8092505050919050565b7f000000000000000000000000000000000000000000000000000000000000000073ffffffffffffffffffffffffffffffffffffffff163373ffffffffffffffffffffffffffffffffffffffff16146117db576040517f08c379a00000000000000000000000000000000000000000000000000000000081526004016117d290614bd3565b60405180910390fd5b6117e58282612a43565b5050565b60105481565b6060600180546117fe90614f64565b80601f016020809104026020016040519081016040528092919081815260200182805461182a90614f64565b80156118775780601f1061184c57610100808354040283529160200191611877565b820191906000526020600020905b81548152906001019060200180831161185a57829003601f168201915b5050505050905090565b600b6020528060005260406000206000915090505481565b6118ab6118a4612038565b8383612a4e565b5050565b6118c06118ba612038565b836120f9565b6118ff576040517f08c379a00000000000000000000000000000000000000000000000000000000081526004016118f690614c13565b60405180910390fd5b61190b84848484612bbb565b50505050565b6060600080600060115414801561192a57506000601254145b156119dd5760105484600160026010546119449190614e09565b61194e9190614d4b565b60405160200161195f929190614c4e565b6040516020818303038152906040528051906020012060001c611982919061501d565b9150601054846002806010546119989190614e09565b6119a29190614d4b565b6040516020016119b3929190614c4e565b6040516020818303038152906040528051906020012060001c6119d6919061501d565b90506119e8565b601154915060125490505b600060105485600360026010546119ff9190614e09565b611a099190614d4b565b604051602001611a1a929190614c4e565b6040516020818303038152906040528051906020012060001c611a3d919061501d565b905060006010548660046002601054611a569190614e09565b611a609190614d4b565b604051602001611a71929190614c4e565b6040516020818303038152906040528051906020012060001c611a94919061501d565b905081601181905550806012819055506000611aaf85612646565b611ab885612646565b604051602001611ac99291906147b8565b604051602081830303815290604052905080611ae484612646565b611aed84612646565b604051602001611aff939291906146b0565b60405160208183030381529060405295505050505050919050565b6060611b2582611fcc565b611b64576040517f08c379a0000000000000000000000000000000000000000000000000000000008152600401611b5b90614b33565b60405180910390fd5b6000600660008481526020019081526020016000208054611b8490614f64565b80601f0160208091040260200160405190810160405280929190818152602001828054611bb090614f64565b8015611bfd5780601f10611bd257610100808354040283529160200191611bfd565b820191906000526020600020905b815481529060010190602001808311611be057829003601f168201915b505050505090506000611c0e612c17565b9050600081511415611c24578192505050611c67565b600082511115611c59578082604051602001611c41929190614622565b60405160208183030381529060405292505050611c67565b611c6284612c2e565b925050505b919050565b60008390505b8284611c7e9190614d4b565b811015611ced57611c8f8282612cd5565b600060135482604051602001611ca6929190614c4e565b6040516020818303038152906040528051906020012060001c905080600b600084815260200190815260200160002081905550508080611ce590614f96565b915050611c72565b50505050565b60095481565b6000600560008473ffffffffffffffffffffffffffffffffffffffff1673ffffffffffffffffffffffffffffffffffffffff16815260200190815260200160002060008373ffffffffffffffffffffffffffffffffffffffff1673ffffffffffffffffffffffffffffffffffffffff16815260200190815260200160002060009054906101000a900460ff16905092915050565b60606040518060400160405280600681526020017f3c6c696e6520000000000000000000000000000000000000000000000000000081525090506000611dfb86604051602001611ddd9190614c33565b6040516020818303038152906040528051906020012060001c611911565b90508181604051602001611e10929190614622565b604051602081830303815290604052915081611e2b86612646565b611e3485612646565b611e3d87612646565b604051602001611e509493929190614646565b604051602081830303815290604052915050949350505050565b611e72612038565b73ffffffffffffffffffffffffffffffffffffffff16611e906114ca565b73ffffffffffffffffffffffffffffffffffffffff1614611ee6576040517f08c379a0000000000000000000000000000000000000000000000000000000008152600401611edd90614b73565b60405180910390fd5b600073ffffffffffffffffffffffffffffffffffffffff168173ffffffffffffffffffffffffffffffffffffffff161415611f56576040517f08c379a0000000000000000000000000000000000000000000000000000000008152600401611f4d90614993565b60405180910390fd5b611f5f8161281b565b50565b60007f01ffc9a7000000000000000000000000000000000000000000000000000000007bffffffffffffffffffffffffffffffffffffffffffffffffffffffff1916827bffffffffffffffffffffffffffffffffffffffffffffffffffffffff1916149050919050565b60008073ffffffffffffffffffffffffffffffffffffffff166002600084815260200190815260200160002060009054906101000a900473ffffffffffffffffffffffffffffffffffffffff1673ffffffffffffffffffffffffffffffffffffffff1614159050919050565b600033905090565b816004600083815260200190815260200160002060006101000a81548173ffffffffffffffffffffffffffffffffffffffff021916908373ffffffffffffffffffffffffffffffffffffffff160217905550808273ffffffffffffffffffffffffffffffffffffffff166120b383610fe3565b73ffffffffffffffffffffffffffffffffffffffff167f8c5be1e5ebec7d5bd14f71427d1e84f3dd0314c0f7b2291e5b200ac8c7c3b92560405160405180910390a45050565b600061210482611fcc565b612143576040517f08c379a000000000000000000000000000000000000000000000000000000000815260040161213a90614a53565b60405180910390fd5b600061214e83610fe3565b90508073ffffffffffffffffffffffffffffffffffffffff168473ffffffffffffffffffffffffffffffffffffffff1614806121bd57508373ffffffffffffffffffffffffffffffffffffffff166121a584610a6d565b73ffffffffffffffffffffffffffffffffffffffff16145b806121ce57506121cd8185611cf9565b5b91505092915050565b8273ffffffffffffffffffffffffffffffffffffffff166121f782610fe3565b73ffffffffffffffffffffffffffffffffffffffff161461224d576040517f08c379a000000000000000000000000000000000000000000000000000000000815260040161224490614b93565b60405180910390fd5b600073ffffffffffffffffffffffffffffffffffffffff168273ffffffffffffffffffffffffffffffffffffffff1614156122bd576040517f08c379a00000000000000000000000000000000000000000000000000000000081526004016122b4906149f3565b60405180910390fd5b6122c8838383612cf3565b6122d3600082612040565b6001600360008573ffffffffffffffffffffffffffffffffffffffff1673ffffffffffffffffffffffffffffffffffffffff16815260200190815260200160002060008282546123239190614e63565b925050819055506001600360008473ffffffffffffffffffffffffffffffffffffffff1673ffffffffffffffffffffffffffffffffffffffff168152602001908152602001600020600082825461237a9190614d4b565b92505081905550816002600083815260200190815260200160002060006101000a81548173ffffffffffffffffffffffffffffffffffffffff021916908373ffffffffffffffffffffffffffffffffffffffff160217905550808273ffffffffffffffffffffffffffffffffffffffff168473ffffffffffffffffffffffffffffffffffffffff167fddf252ad1be2c89b69c2b068fc378daa952ba7f163c4a11628f55a4df523b3ef60405160405180910390a4505050565b6060600082511415612456576040518060200160405280600081525090506125cd565b600060405180606001604052806040815260200161518f60409139905060006003600285516124859190614d4b565b61248f9190614dd8565b600461249b9190614e09565b905060006020826124ac9190614d4b565b67ffffffffffffffff8111156124eb577f4e487b7100000000000000000000000000000000000000000000000000000000600052604160045260246000fd5b6040519080825280601f01601f19166020018201604052801561251d5781602001600182028036833780820191505090505b509050818152600183018586518101602084015b8183101561258c576003830192508251603f8160121c168501518253600182019150603f81600c1c168501518253600182019150603f8160061c168501518253600182019150603f8116850151825360018201915050612531565b6003895106600181146125a657600281146125b6576125c1565b613d3d60f01b60028303526125c1565b603d60f81b60018303525b50505050508093505050505b919050565b6125db82611fcc565b61261a576040517f08c379a000000000000000000000000000000000000000000000000000000000815260040161261190614ad3565b60405180910390fd5b806006600084815260200190815260200160002090805190602001906126419291906132e7565b505050565b6060600082141561268e576040518060400160405280600181526020017f30000000000000000000000000000000000000000000000000000000000000008152509050612816565b600082905060005b600082146126c05780806126a990614f96565b915050600a826126b99190614dd8565b9150612696565b60008167ffffffffffffffff811115612702577f4e487b7100000000000000000000000000000000000000000000000000000000600052604160045260246000fd5b6040519080825280601f01601f1916602001820160405280156127345781602001600182028036833780820191505090505b50905060008290505b6000861461280e576001816127529190614e63565b90506000600a80886127649190614dd8565b61276e9190614e09565b876127799190614e63565b60306127859190614da1565b905060008160f81b9050808484815181106127c9577f4e487b7100000000000000000000000000000000000000000000000000000000600052603260045260246000fd5b60200101907effffffffffffffffffffffffffffffffffffffffffffffffffffffffffffff1916908160001a905350600a886128059190614dd8565b9750505061273d565b819450505050505b919050565b6000600860009054906101000a900473ffffffffffffffffffffffffffffffffffffffff16905081600860006101000a81548173ffffffffffffffffffffffffffffffffffffffff021916908373ffffffffffffffffffffffffffffffffffffffff1602179055508173ffffffffffffffffffffffffffffffffffffffff168173ffffffffffffffffffffffffffffffffffffffff167f8be0079c531659141344cd1fd0a4f28419497f9722a3daafe3b4186f6b6457e060405160405180910390a35050565b60007f000000000000000000000000000000000000000000000000000000000000000073ffffffffffffffffffffffffffffffffffffffff16634000aea07f0000000000000000000000000000000000000000000000000000000000000000848660006040516020016129559291906148e3565b6040516020818303038152906040526040518463ffffffff1660e01b81526004016129829392919061486f565b602060405180830381600087803b15801561299c57600080fd5b505af11580156129b0573d6000803e3d6000fd5b505050506040513d601f19601f820116820180604052508101906129d49190613694565b5060006129f7846000306007600089815260200190815260200160002054612cf8565b905060016007600086815260200190815260200160002054612a199190614d4b565b6007600086815260200190815260200160002081905550612a3a8482612d34565b91505092915050565b806013819055505050565b8173ffffffffffffffffffffffffffffffffffffffff168373ffffffffffffffffffffffffffffffffffffffff161415612abd576040517f08c379a0000000000000000000000000000000000000000000000000000000008152600401612ab490614a13565b60405180910390fd5b80600560008573ffffffffffffffffffffffffffffffffffffffff1673ffffffffffffffffffffffffffffffffffffffff16815260200190815260200160002060008473ffffffffffffffffffffffffffffffffffffffff1673ffffffffffffffffffffffffffffffffffffffff16815260200190815260200160002060006101000a81548160ff0219169083151502179055508173ffffffffffffffffffffffffffffffffffffffff168373ffffffffffffffffffffffffffffffffffffffff167f17307eab39ab6107e8899845ad3d59bd9653f200f220920489ca2b5937696c3183604051612bae91906148ad565b60405180910390a3505050565b612bc68484846121d7565b612bd284848484612d67565b612c11576040517f08c379a0000000000000000000000000000000000000000000000000000000008152600401612c0890614973565b60405180910390fd5b50505050565b606060405180602001604052806000815250905090565b6060612c3982611fcc565b612c78576040517f08c379a0000000000000000000000000000000000000000000000000000000008152600401612c6f90614bb3565b60405180910390fd5b6000612c82612c17565b90506000815111612ca25760405180602001604052806000815250612ccd565b80612cac84612efe565b604051602001612cbd929190614622565b6040516020818303038152906040525b915050919050565b612cef8282604051806020016040528060008152506130ab565b5050565b505050565b600084848484604051602001612d11949392919061490c565b6040516020818303038152906040528051906020012060001c9050949350505050565b60008282604051602001612d499291906145df565b60405160208183030381529060405280519060200120905092915050565b6000612d888473ffffffffffffffffffffffffffffffffffffffff16613106565b15612ef1578373ffffffffffffffffffffffffffffffffffffffff1663150b7a02612db1612038565b8786866040518563ffffffff1660e01b8152600401612dd39493929190614823565b602060405180830381600087803b158015612ded57600080fd5b505af1925050508015612e1e57506040513d601f19601f82011682018060405250810190612e1b919061374b565b60015b612ea1573d8060008114612e4e576040519150601f19603f3d011682016040523d82523d6000602084013e612e53565b606091505b50600081511415612e99576040517f08c379a0000000000000000000000000000000000000000000000000000000008152600401612e9090614973565b60405180910390fd5b805181602001fd5b63150b7a0260e01b7bffffffffffffffffffffffffffffffffffffffffffffffffffffffff1916817bffffffffffffffffffffffffffffffffffffffffffffffffffffffff191614915050612ef6565b600190505b949350505050565b60606000821415612f46576040518060400160405280600181526020017f300000000000000000000000000000000000000000000000000000000000000081525090506130a6565b600082905060005b60008214612f78578080612f6190614f96565b915050600a82612f719190614dd8565b9150612f4e565b60008167ffffffffffffffff811115612fba577f4e487b7100000000000000000000000000000000000000000000000000000000600052604160045260246000fd5b6040519080825280601f01601f191660200182016040528015612fec5781602001600182028036833780820191505090505b5090505b6000851461309f576001826130059190614e63565b9150600a85613014919061501d565b60306130209190614d4b565b60f81b81838151811061305c577f4e487b7100000000000000000000000000000000000000000000000000000000600052603260045260246000fd5b60200101907effffffffffffffffffffffffffffffffffffffffffffffffffffffffffffff1916908160001a905350600a856130989190614dd8565b9450612ff0565b8093505050505b919050565b6130b58383613119565b6130c26000848484612d67565b613101576040517f08c379a00000000000000000000000000000000000000000000000000000000081526004016130f890614973565b60405180910390fd5b505050565b600080823b905060008111915050919050565b600073ffffffffffffffffffffffffffffffffffffffff168273ffffffffffffffffffffffffffffffffffffffff161415613189576040517f08c379a000000000000000000000000000000000000000000000000000000000815260040161318090614b13565b60405180910390fd5b61319281611fcc565b156131d2576040517f08c379a00000000000000000000000000000000000000000000000000000000081526004016131c9906149b3565b60405180910390fd5b6131de60008383612cf3565b6001600360008473ffffffffffffffffffffffffffffffffffffffff1673ffffffffffffffffffffffffffffffffffffffff168152602001908152602001600020600082825461322e9190614d4b565b92505081905550816002600083815260200190815260200160002060006101000a81548173ffffffffffffffffffffffffffffffffffffffff021916908373ffffffffffffffffffffffffffffffffffffffff160217905550808273ffffffffffffffffffffffffffffffffffffffff16600073ffffffffffffffffffffffffffffffffffffffff167fddf252ad1be2c89b69c2b068fc378daa952ba7f163c4a11628f55a4df523b3ef60405160405180910390a45050565b8280546132f390614f64565b90600052602060002090601f016020900481019282613315576000855561335c565b82601f1061332e57805160ff191683800117855561335c565b8280016001018555821561335c579182015b8281111561335b578251825591602001919060010190613340565b5b509050613369919061336d565b5090565b5b8082111561338657600081600090555060010161336e565b5090565b600061339d61339884614ca8565b614c77565b9050828152602081018484840111156133b557600080fd5b6133c0848285614f22565b509392505050565b60006133db6133d684614cd8565b614c77565b9050828152602081018484840111156133f357600080fd5b6133fe848285614f22565b509392505050565b6000813590506134158161511b565b92915050565b60008135905061342a81615132565b92915050565b60008151905061343f81615132565b92915050565b60008135905061345481615149565b92915050565b60008135905061346981615160565b92915050565b60008151905061347e81615160565b92915050565b600082601f83011261349557600080fd5b81356134a584826020860161338a565b91505092915050565b600082601f8301126134bf57600080fd5b81356134cf8482602086016133c8565b91505092915050565b6000813590506134e781615177565b92915050565b6000602082840312156134ff57600080fd5b600061350d84828501613406565b91505092915050565b6000806040838503121561352957600080fd5b600061353785828601613406565b925050602061354885828601613406565b9150509250929050565b60008060006060848603121561356757600080fd5b600061357586828701613406565b935050602061358686828701613406565b9250506040613597868287016134d8565b9150509250925092565b600080600080608085870312156135b757600080fd5b60006135c587828801613406565b94505060206135d687828801613406565b93505060406135e7878288016134d8565b925050606085013567ffffffffffffffff81111561360457600080fd5b61361087828801613484565b91505092959194509250565b6000806040838503121561362f57600080fd5b600061363d85828601613406565b925050602061364e8582860161341b565b9150509250929050565b6000806040838503121561366b57600080fd5b600061367985828601613406565b925050602061368a858286016134d8565b9150509250929050565b6000602082840312156136a657600080fd5b60006136b484828501613430565b91505092915050565b6000602082840312156136cf57600080fd5b60006136dd84828501613445565b91505092915050565b600080604083850312156136f957600080fd5b600061370785828601613445565b9250506020613718858286016134d8565b9150509250929050565b60006020828403121561373457600080fd5b60006137428482850161345a565b91505092915050565b60006020828403121561375d57600080fd5b600061376b8482850161346f565b91505092915050565b60006020828403121561378657600080fd5b600082013567ffffffffffffffff8111156137a057600080fd5b6137ac848285016134ae565b91505092915050565b6000602082840312156137c757600080fd5b60006137d5848285016134d8565b91505092915050565b600080604083850312156137f157600080fd5b60006137ff858286016134d8565b9250506020613810858286016134d8565b9150509250929050565b60008060006060848603121561382f57600080fd5b600061383d868287016134d8565b935050602061384e868287016134d8565b925050604061385f86828701613406565b9150509250925092565b6000806000806080858703121561387f57600080fd5b600061388d878288016134d8565b945050602061389e878288016134d8565b93505060406138af878288016134d8565b92505060606138c0878288016134d8565b91505092959194509250565b6138d581614e97565b82525050565b6138e481614ea9565b82525050565b6138f381614eb5565b82525050565b61390a61390582614eb5565b615009565b82525050565b600061391b82614d08565b6139258185614d1e565b9350613935818560208601614f31565b61393e8161510a565b840191505092915050565b600061395482614d13565b61395e8185614d2f565b935061396e818560208601614f31565b6139778161510a565b840191505092915050565b600061398d82614d13565b6139978185614d40565b93506139a7818560208601614f31565b80840191505092915050565b60006139c0600483614d40565b91507f79313d27000000000000000000000000000000000000000000000000000000006000830152600482019050919050565b6000613a00603283614d2f565b91507f4552433732313a207472616e7366657220746f206e6f6e20455243373231526560008301527f63656976657220696d706c656d656e74657200000000000000000000000000006020830152604082019050919050565b6000613a66602683614d2f565b91507f4f776e61626c653a206e6577206f776e657220697320746865207a65726f206160008301527f64647265737300000000000000000000000000000000000000000000000000006020830152604082019050919050565b6000613acc601c83614d2f565b91507f4552433732313a20746f6b656e20616c7265616479206d696e746564000000006000830152602082019050919050565b6000613b0c600783614d40565b91507f2c20313030252c000000000000000000000000000000000000000000000000006000830152600782019050919050565b6000613b4c601183614d40565b91507f25293b207374726f6b652d77696474683a0000000000000000000000000000006000830152601182019050919050565b6000613b8c602f83614d2f565b91507f4e65656420746f207761697420666f722074686520436861696e6c696e6b206e60008301527f6f646520746f20726573706f6e642100000000000000000000000000000000006020830152604082019050919050565b6000613bf2602483614d2f565b91507f4552433732313a207472616e7366657220746f20746865207a65726f2061646460008301527f72657373000000000000000000000000000000000000000000000000000000006020830152604082019050919050565b6000613c58601983614d2f565b91507f4552433732313a20617070726f766520746f2063616c6c6572000000000000006000830152602082019050919050565b6000613c98601383614d40565b91507f207374796c653d277374726f6b653a68736c28000000000000000000000000006000830152601382019050919050565b6000613cd8602283614d40565b91507f27207374796c653d276261636b67726f756e642d636f6c6f723a626c61636b2760008301527f203e0000000000000000000000000000000000000000000000000000000000006020830152602282019050919050565b6000613d3e601883614d2f565b91507f746f6b656e55524920697320616c7265616479207365742100000000000000006000830152602082019050919050565b6000613d7e600683614d40565b91507f272079323d2700000000000000000000000000000000000000000000000000006000830152600682019050919050565b6000613dbe602c83614d2f565b91507f4552433732313a206f70657261746f7220717565727920666f72206e6f6e657860008301527f697374656e7420746f6b656e00000000000000000000000000000000000000006020830152604082019050919050565b6000613e24603883614d2f565b91507f4552433732313a20617070726f76652063616c6c6572206973206e6f74206f7760008301527f6e6572206e6f7220617070726f76656420666f7220616c6c00000000000000006020830152604082019050919050565b6000613e8a602a83614d2f565b91507f4552433732313a2062616c616e636520717565727920666f7220746865207a6560008301527f726f2061646472657373000000000000000000000000000000000000000000006020830152604082019050919050565b6000613ef0602983614d2f565b91507f4552433732313a206f776e657220717565727920666f72206e6f6e657869737460008301527f656e7420746f6b656e00000000000000000000000000000000000000000000006020830152604082019050919050565b6000613f56602e83614d2f565b91507f45524337323155524953746f726167653a2055524920736574206f66206e6f6e60008301527f6578697374656e7420746f6b656e0000000000000000000000000000000000006020830152604082019050919050565b6000613fbc602083614d2f565b91507f546f6b656e496420686173206e6f74206265656e206d696e74656420796574216000830152602082019050919050565b6000613ffc600483614d40565b91507f78323d27000000000000000000000000000000000000000000000000000000006000830152600482019050919050565b600061403c600283614d40565b91507f227d0000000000000000000000000000000000000000000000000000000000006000830152600282019050919050565b600061407c602083614d2f565b91507f4552433732313a206d696e7420746f20746865207a65726f20616464726573736000830152602082019050919050565b60006140bc603183614d2f565b91507f45524337323155524953746f726167653a2055524920717565727920666f722060008301527f6e6f6e6578697374656e7420746f6b656e0000000000000000000000000000006020830152604082019050919050565b6000614122602c83614d2f565b91507f4552433732313a20617070726f76656420717565727920666f72206e6f6e657860008301527f697374656e7420746f6b656e00000000000000000000000000000000000000006020830152604082019050919050565b6000614188602083614d2f565b91507f4f776e61626c653a2063616c6c6572206973206e6f7420746865206f776e65726000830152602082019050919050565b60006141c8602983614d2f565b91507f4552433732313a207472616e73666572206f6620746f6b656e2074686174206960008301527f73206e6f74206f776e00000000000000000000000000000000000000000000006020830152604082019050919050565b600061422e603083614d40565b91507f3c73766720786d6c6e733d27687474703a2f2f7777772e77332e6f72672f323060008301527f30302f73766727206865696768743d27000000000000000000000000000000006020830152603082019050919050565b6000614294602f83614d2f565b91507f4552433732314d657461646174613a2055524920717565727920666f72206e6f60008301527f6e6578697374656e7420746f6b656e00000000000000000000000000000000006020830152604082019050919050565b60006142fa601f83614d2f565b91507f4f6e6c7920565246436f6f7264696e61746f722063616e2066756c66696c6c006000830152602082019050919050565b600061433a602183614d2f565b91507f4552433732313a20617070726f76616c20746f2063757272656e74206f776e6560008301527f72000000000000000000000000000000000000000000000000000000000000006020830152604082019050919050565b60006143a0601d83614d40565b91507f646174613a6170706c69636174696f6e2f6a736f6e3b6261736536342c0000006000830152601d82019050919050565b60006143e0603183614d2f565b91507f4552433732313a207472616e736665722063616c6c6572206973206e6f74206f60008301527f776e6572206e6f7220617070726f7665640000000000000000000000000000006020830152604082019050919050565b6000614446600483614d40565b91507f27202f3e000000000000000000000000000000000000000000000000000000006000830152600482019050919050565b6000614486600a83614d40565b91507f7b22696d616765223a22000000000000000000000000000000000000000000006000830152600a82019050919050565b60006144c6600283614d40565b91507f27200000000000000000000000000000000000000000000000000000000000006000830152600282019050919050565b6000614506600683614d40565b91507f3c2f7376673e00000000000000000000000000000000000000000000000000006000830152600682019050919050565b6000614546600983614d40565b91507f272077696474683d2700000000000000000000000000000000000000000000006000830152600982019050919050565b6000614586600483614d40565b91507f78313d27000000000000000000000000000000000000000000000000000000006000830152600482019050919050565b6145c281614f0b565b82525050565b6145d96145d482614f0b565b615013565b82525050565b60006145eb82856138f9565b6020820191506145fb82846145c8565b6020820191508190509392505050565b60006146178284613982565b915081905092915050565b600061462e8285613982565b915061463a8284613982565b91508190509392505050565b60006146528287613982565b915061465d82613c8b565b91506146698286613982565b915061467482613aff565b91506146808285613982565b915061468b82613b3f565b91506146978284613982565b91506146a282614439565b915081905095945050505050565b60006146bc8286613982565b91506146c782613fef565b91506146d38285613982565b91506146de82613d71565b91506146ea8284613982565b91506146f5826144b9565b9150819050949350505050565b600061470e8284613982565b9150614719826144f9565b915081905092915050565b600061472f82614221565b915061473b8285613982565b915061474682614539565b91506147528284613982565b915061475d82613ccb565b91508190509392505050565b600061477482614393565b91506147808284613982565b915081905092915050565b600061479682614479565b91506147a28284613982565b91506147ad8261402f565b915081905092915050565b60006147c382614579565b91506147cf8285613982565b91506147da826144b9565b91506147e5826139b3565b91506147f18284613982565b91506147fc826144b9565b91508190509392505050565b600060208201905061481d60008301846138cc565b92915050565b600060808201905061483860008301876138cc565b61484560208301866138cc565b61485260408301856145b9565b81810360608301526148648184613910565b905095945050505050565b600060608201905061488460008301866138cc565b61489160208301856145b9565b81810360408301526148a38184613910565b9050949350505050565b60006020820190506148c260008301846138db565b92915050565b60006020820190506148dd60008301846138ea565b92915050565b60006040820190506148f860008301856138ea565b61490560208301846145b9565b9392505050565b600060808201905061492160008301876138ea565b61492e60208301866145b9565b61493b60408301856138cc565b61494860608301846145b9565b95945050505050565b6000602082019050818103600083015261496b8184613949565b905092915050565b6000602082019050818103600083015261498c816139f3565b9050919050565b600060208201905081810360008301526149ac81613a59565b9050919050565b600060208201905081810360008301526149cc81613abf565b9050919050565b600060208201905081810360008301526149ec81613b7f565b9050919050565b60006020820190508181036000830152614a0c81613be5565b9050919050565b60006020820190508181036000830152614a2c81613c4b565b9050919050565b60006020820190508181036000830152614a4c81613d31565b9050919050565b60006020820190508181036000830152614a6c81613db1565b9050919050565b60006020820190508181036000830152614a8c81613e17565b9050919050565b60006020820190508181036000830152614aac81613e7d565b9050919050565b60006020820190508181036000830152614acc81613ee3565b9050919050565b60006020820190508181036000830152614aec81613f49565b9050919050565b60006020820190508181036000830152614b0c81613faf565b9050919050565b60006020820190508181036000830152614b2c8161406f565b9050919050565b60006020820190508181036000830152614b4c816140af565b9050919050565b60006020820190508181036000830152614b6c81614115565b9050919050565b60006020820190508181036000830152614b8c8161417b565b9050919050565b60006020820190508181036000830152614bac816141bb565b9050919050565b60006020820190508181036000830152614bcc81614287565b9050919050565b60006020820190508181036000830152614bec816142ed565b9050919050565b60006020820190508181036000830152614c0c8161432d565b9050919050565b60006020820190508181036000830152614c2c816143d3565b9050919050565b6000602082019050614c4860008301846145b9565b92915050565b6000604082019050614c6360008301856145b9565b614c7060208301846145b9565b9392505050565b6000604051905081810181811067ffffffffffffffff82111715614c9e57614c9d6150db565b5b8060405250919050565b600067ffffffffffffffff821115614cc357614cc26150db565b5b601f19601f8301169050602081019050919050565b600067ffffffffffffffff821115614cf357614cf26150db565b5b601f19601f8301169050602081019050919050565b600081519050919050565b600081519050919050565b600082825260208201905092915050565b600082825260208201905092915050565b600081905092915050565b6000614d5682614f0b565b9150614d6183614f0b565b9250827fffffffffffffffffffffffffffffffffffffffffffffffffffffffffffffffff03821115614d9657614d9561504e565b5b828201905092915050565b6000614dac82614f15565b9150614db783614f15565b92508260ff03821115614dcd57614dcc61504e565b5b828201905092915050565b6000614de382614f0b565b9150614dee83614f0b565b925082614dfe57614dfd61507d565b5b828204905092915050565b6000614e1482614f0b565b9150614e1f83614f0b565b9250817fffffffffffffffffffffffffffffffffffffffffffffffffffffffffffffffff0483118215151615614e5857614e5761504e565b5b828202905092915050565b6000614e6e82614f0b565b9150614e7983614f0b565b925082821015614e8c57614e8b61504e565b5b828203905092915050565b6000614ea282614eeb565b9050919050565b60008115159050919050565b6000819050919050565b60007fffffffff0000000000000000000000000000000000000000000000000000000082169050919050565b600073ffffffffffffffffffffffffffffffffffffffff82169050919050565b6000819050919050565b600060ff82169050919050565b82818337600083830152505050565b60005b83811015614f4f578082015181840152602081019050614f34565b83811115614f5e576000848401525b50505050565b60006002820490506001821680614f7c57607f821691505b60208210811415614f9057614f8f6150ac565b5b50919050565b6000614fa182614f0b565b91507fffffffffffffffffffffffffffffffffffffffffffffffffffffffffffffffff821415614fd457614fd361504e565b5b600182019050919050565b6000614fea82614f15565b915060ff821415614ffe57614ffd61504e565b5b600182019050919050565b6000819050919050565b6000819050919050565b600061502882614f0b565b915061503383614f0b565b9250826150435761504261507d565b5b828206905092915050565b7f4e487b7100000000000000000000000000000000000000000000000000000000600052601160045260246000fd5b7f4e487b7100000000000000000000000000000000000000000000000000000000600052601260045260246000fd5b7f4e487b7100000000000000000000000000000000000000000000000000000000600052602260045260246000fd5b7f4e487b7100000000000000000000000000000000000000000000000000000000600052604160045260246000fd5b6000601f19601f8301169050919050565b61512481614e97565b811461512f57600080fd5b50565b61513b81614ea9565b811461514657600080fd5b50565b61515281614eb5565b811461515d57600080fd5b50565b61516981614ebf565b811461517457600080fd5b50565b61518081614f0b565b811461518b57600080fd5b5056fe4142434445464748494a4b4c4d4e4f505152535455565758595a6162636465666768696a6b6c6d6e6f707172737475767778797a303132333435363738392b2fa264697066735822122078b12d3727fc92b6ca706164051d6a80cb0f2609a9ae65b92037d1e2b8f7857564736f6c63430008000033",
  "linkReferences": {},
  "deployedLinkReferences": {}
}